{
  "_format": "hh-sol-artifact-1",
  "contractName": "LoansTGT",
  "sourceName": "contracts/LoansTGT.sol",
  "abi": [
    {
      "inputs": [
        {
          "internalType": "address",
          "name": "_comptrollerAddress",
          "type": "address"
        }
      ],
      "stateMutability": "nonpayable",
      "type": "constructor"
    },
    {
      "anonymous": false,
      "inputs": [
        {
          "indexed": false,
          "internalType": "string",
          "name": "",
          "type": "string"
        },
        {
          "indexed": false,
          "internalType": "uint256",
          "name": "",
          "type": "uint256"
        }
      ],
      "name": "MyLog",
      "type": "event"
    },
    {
      "inputs": [
        {
          "internalType": "address payable",
          "name": "_cEtherAddress",
          "type": "address"
        },
        {
          "internalType": "address",
          "name": "_priceFeedAddress",
          "type": "address"
        },
        {
          "internalType": "address",
          "name": "_cTokenAddress",
          "type": "address"
        },
        {
          "internalType": "uint256",
          "name": "_underlyingDecimals",
          "type": "uint256"
        }
      ],
      "name": "borrowErc20Example",
      "outputs": [
        {
          "internalType": "uint256",
          "name": "",
          "type": "uint256"
        }
      ],
      "stateMutability": "payable",
      "type": "function"
    },
    {
      "inputs": [
        {
          "internalType": "address payable",
          "name": "_cEtherAddress",
          "type": "address"
        }
      ],
      "name": "borrowEthExample",
      "outputs": [
        {
          "internalType": "uint256",
          "name": "",
          "type": "uint256"
        }
      ],
      "stateMutability": "nonpayable",
      "type": "function"
    },
    {
      "inputs": [
        {
          "internalType": "address",
          "name": "_erc20Address",
          "type": "address"
        },
        {
          "internalType": "address",
          "name": "_cErc20Address",
          "type": "address"
        },
        {
          "internalType": "uint256",
          "name": "amount",
          "type": "uint256"
        }
      ],
      "name": "myErc20RepayBorrow",
      "outputs": [
        {
          "internalType": "bool",
          "name": "",
          "type": "bool"
        }
      ],
      "stateMutability": "nonpayable",
      "type": "function"
    },
    {
      "inputs": [
        {
          "internalType": "address",
          "name": "_cEtherAddress",
          "type": "address"
        },
        {
          "internalType": "uint256",
          "name": "amount",
          "type": "uint256"
        },
        {
          "internalType": "uint256",
          "name": "gas",
          "type": "uint256"
        }
      ],
      "name": "myEthRepayBorrow",
      "outputs": [
        {
          "internalType": "bool",
          "name": "",
          "type": "bool"
        }
      ],
      "stateMutability": "nonpayable",
      "type": "function"
    },
    {
      "inputs": [
        {
          "internalType": "uint256",
          "name": "amount",
          "type": "uint256"
        },
        {
          "internalType": "bool",
          "name": "redeemType",
          "type": "bool"
        },
        {
          "internalType": "address",
          "name": "_cErc20Contract",
          "type": "address"
        }
      ],
      "name": "redeemCErc20Tokens",
      "outputs": [
        {
          "internalType": "bool",
          "name": "",
          "type": "bool"
        }
      ],
      "stateMutability": "nonpayable",
      "type": "function"
    },
    {
      "inputs": [
        {
          "internalType": "uint256",
          "name": "amount",
          "type": "uint256"
        },
        {
          "internalType": "bool",
          "name": "redeemType",
          "type": "bool"
        },
        {
          "internalType": "address",
          "name": "_cEtherContract",
          "type": "address"
        }
      ],
      "name": "redeemCEth",
      "outputs": [
        {
          "internalType": "bool",
          "name": "",
          "type": "bool"
        }
      ],
      "stateMutability": "nonpayable",
      "type": "function"
    },
    {
      "inputs": [
        {
          "internalType": "address",
          "name": "_erc20Contract",
          "type": "address"
        },
        {
          "internalType": "address",
          "name": "_cErc20Contract",
          "type": "address"
        },
        {
          "internalType": "uint256",
          "name": "_numTokensToSupply",
          "type": "uint256"
        }
      ],
      "name": "supplyErc20ToCompound",
      "outputs": [
        {
          "internalType": "uint256",
          "name": "",
          "type": "uint256"
        }
      ],
      "stateMutability": "nonpayable",
      "type": "function"
    },
    {
      "inputs": [
        {
          "internalType": "address payable",
          "name": "_cEtherContract",
          "type": "address"
        }
      ],
      "name": "supplyEthToCompound",
      "outputs": [
        {
          "internalType": "bool",
          "name": "",
          "type": "bool"
        }
      ],
      "stateMutability": "payable",
      "type": "function"
    },
    {
      "stateMutability": "payable",
      "type": "receive"
    }
  ],
  "bytecode": "0x60806040523480156200001157600080fd5b506040516200288b3803806200288b833981810160405281019062000037919062000095565b806000806101000a81548173ffffffffffffffffffffffffffffffffffffffff021916908373ffffffffffffffffffffffffffffffffffffffff160217905550506200011a565b6000815190506200008f8162000100565b92915050565b600060208284031215620000ae57620000ad620000fb565b5b6000620000be848285016200007e565b91505092915050565b6000620000d482620000db565b9050919050565b600073ffffffffffffffffffffffffffffffffffffffff82169050919050565b600080fd5b6200010b81620000c7565b81146200011757600080fd5b50565b612761806200012a6000396000f3fe60806040526004361061007f5760003560e01c8063ae9321cb1161004e578063ae9321cb14610172578063c6417b10146101af578063c6fb5014146101df578063d0ace48e1461021c57610086565b80631231ece91461008b5780633b7ba25f146100c85780639b7c83a214610105578063a82ffd881461014257610086565b3661008657005b600080fd5b34801561009757600080fd5b506100b260048036038101906100ad919061185e565b610259565b6040516100bf9190611d4f565b60405180910390f35b3480156100d457600080fd5b506100ef60048036038101906100ea919061185e565b6103d2565b6040516100fc9190611fa8565b60405180910390f35b34801561011157600080fd5b5061012c600480360381019061012791906117ca565b610831565b6040516101399190611fa8565b60405180910390f35b61015c600480360381019061015791906117ca565b610b58565b6040516101699190611d4f565b60405180910390f35b34801561017e57600080fd5b50610199600480360381019061019491906118b1565b610d47565b6040516101a69190611d4f565b60405180910390f35b6101c960048036038101906101c491906117f7565b610dbd565b6040516101d69190611fa8565b60405180910390f35b3480156101eb57600080fd5b50610206600480360381019061020191906119a7565b6113bc565b6040516102139190611d4f565b60405180910390f35b34801561022857600080fd5b50610243600480360381019061023e91906119a7565b611535565b6040516102509190611d4f565b60405180910390f35b60008084905060008490508173ffffffffffffffffffffffffffffffffffffffff1663095ea7b386866040518363ffffffff1660e01b815260040161029f929190611d04565b602060405180830381600087803b1580156102b957600080fd5b505af11580156102cd573d6000803e3d6000fd5b505050506040513d601f19601f820116820180604052508101906102f1919061194d565b5060008173ffffffffffffffffffffffffffffffffffffffff16630e752702866040518263ffffffff1660e01b815260040161032d9190611fa8565b602060405180830381600087803b15801561034757600080fd5b505af115801561035b573d6000803e3d6000fd5b505050506040513d601f19601f8201168201806040525081019061037f919061197a565b9050600081146103c4576040517f08c379a00000000000000000000000000000000000000000000000000000000081526004016103bb90611d98565b60405180910390fd5b600193505050509392505050565b600080849050600084905060008173ffffffffffffffffffffffffffffffffffffffff1663bd6d894d6040518163ffffffff1660e01b8152600401602060405180830381600087803b15801561042757600080fd5b505af115801561043b573d6000803e3d6000fd5b505050506040513d601f19601f8201168201806040525081019061045f919061197a565b90507f8d1cced004452bd270777a8c670f9f7e7c4fdde56f2db331fe289d39dc2624ad816040516104909190611e82565b60405180910390a160008273ffffffffffffffffffffffffffffffffffffffff1663ae9d70b06040518163ffffffff1660e01b8152600401602060405180830381600087803b1580156104e257600080fd5b505af11580156104f6573d6000803e3d6000fd5b505050506040513d601f19601f8201168201806040525081019061051a919061197a565b90507f8d1cced004452bd270777a8c670f9f7e7c4fdde56f2db331fe289d39dc2624ad8160405161054b9190611eb0565b60405180910390a18373ffffffffffffffffffffffffffffffffffffffff1663095ea7b388886040518363ffffffff1660e01b815260040161058e929190611d04565b602060405180830381600087803b1580156105a857600080fd5b505af11580156105bc573d6000803e3d6000fd5b505050506040513d601f19601f820116820180604052508101906105e0919061194d565b5060008373ffffffffffffffffffffffffffffffffffffffff1663a0712d68886040518263ffffffff1660e01b815260040161061c9190611fa8565b602060405180830381600087803b15801561063657600080fd5b505af115801561064a573d6000803e3d6000fd5b505050506040513d601f19601f8201168201806040525081019061066e919061197a565b90506000600167ffffffffffffffff81111561068d5761068c612372565b5b6040519080825280602002602001820160405280156106bb5781602001602082028036833780820191505090505b50905088816000815181106106d3576106d2612343565b5b602002602001019073ffffffffffffffffffffffffffffffffffffffff16908173ffffffffffffffffffffffffffffffffffffffff168152505060008060009054906101000a900473ffffffffffffffffffffffffffffffffffffffff1673ffffffffffffffffffffffffffffffffffffffff1663c2998238836040518263ffffffff1660e01b81526004016107699190611d2d565b600060405180830381600087803b15801561078357600080fd5b505af1158015610797573d6000803e3d6000fd5b505050506040513d6000823e3d601f19601f820116820180604052508101906107c09190611904565b90506000816000815181106107d8576107d7612343565b5b602002602001015114610820576040517f08c379a000000000000000000000000000000000000000000000000000000000815260040161081790611e42565b60405180910390fd5b829750505050505050509392505050565b60008082905060008060008060009054906101000a900473ffffffffffffffffffffffffffffffffffffffff1673ffffffffffffffffffffffffffffffffffffffff16635ec88c79306040518263ffffffff1660e01b81526004016108969190611ce9565b60606040518083038186803b1580156108ae57600080fd5b505afa1580156108c2573d6000803e3d6000fd5b505050506040513d601f19601f820116820180604052508101906108e691906119fa565b9250925092506000831461092f576040517f08c379a000000000000000000000000000000000000000000000000000000000815260040161092690611f5a565b60405180910390fd5b60008114610972576040517f08c379a000000000000000000000000000000000000000000000000000000000815260040161096990611f3a565b60405180910390fd5b600082116109b5576040517f08c379a00000000000000000000000000000000000000000000000000000000081526004016109ac90611e62565b60405180910390fd5b7f8d1cced004452bd270777a8c670f9f7e7c4fdde56f2db331fe289d39dc2624ad826040516109e49190611ede565b60405180910390a1600066071afd498d000090508473ffffffffffffffffffffffffffffffffffffffff1663c5ebeaec826040518263ffffffff1660e01b8152600401610a319190611fa8565b602060405180830381600087803b158015610a4b57600080fd5b505af1158015610a5f573d6000803e3d6000fd5b505050506040513d601f19601f82011682018060405250810190610a83919061197a565b5060008573ffffffffffffffffffffffffffffffffffffffff166317bfdfbc306040518263ffffffff1660e01b8152600401610abf9190611ce9565b602060405180830381600087803b158015610ad957600080fd5b505af1158015610aed573d6000803e3d6000fd5b505050506040513d601f19601f82011682018060405250810190610b11919061197a565b90507f8d1cced004452bd270777a8c670f9f7e7c4fdde56f2db331fe289d39dc2624ad81604051610b429190611d6a565b60405180910390a1809650505050505050919050565b60008082905060008173ffffffffffffffffffffffffffffffffffffffff1663bd6d894d6040518163ffffffff1660e01b8152600401602060405180830381600087803b158015610ba857600080fd5b505af1158015610bbc573d6000803e3d6000fd5b505050506040513d601f19601f82011682018060405250810190610be0919061197a565b90507f8d1cced004452bd270777a8c670f9f7e7c4fdde56f2db331fe289d39dc2624ad81604051610c119190611de6565b60405180910390a160008273ffffffffffffffffffffffffffffffffffffffff1663ae9d70b06040518163ffffffff1660e01b8152600401602060405180830381600087803b158015610c6357600080fd5b505af1158015610c77573d6000803e3d6000fd5b505050506040513d601f19601f82011682018060405250810190610c9b919061197a565b90507f8d1cced004452bd270777a8c670f9f7e7c4fdde56f2db331fe289d39dc2624ad81604051610ccc9190611f7a565b60405180910390a18273ffffffffffffffffffffffffffffffffffffffff16631249c58b346203d090906040518363ffffffff1660e01b81526004016000604051808303818589803b158015610d2157600080fd5b5088f1158015610d35573d6000803e3d6000fd5b50505050505060019350505050919050565b6000808490508073ffffffffffffffffffffffffffffffffffffffff16634e4d9fea8585906040518363ffffffff1660e01b81526004016000604051808303818589803b158015610d9757600080fd5b5088f1158015610dab573d6000803e3d6000fd5b50505050505060019150509392505050565b600080859050600085905060008590508273ffffffffffffffffffffffffffffffffffffffff16631249c58b346203d090906040518363ffffffff1660e01b81526004016000604051808303818589803b158015610e1a57600080fd5b5088f1158015610e2e573d6000803e3d6000fd5b5050505050506000600167ffffffffffffffff811115610e5157610e50612372565b5b604051908082528060200260200182016040528015610e7f5781602001602082028036833780820191505090505b5090508881600081518110610e9757610e96612343565b5b602002602001019073ffffffffffffffffffffffffffffffffffffffff16908173ffffffffffffffffffffffffffffffffffffffff168152505060008060009054906101000a900473ffffffffffffffffffffffffffffffffffffffff1673ffffffffffffffffffffffffffffffffffffffff1663c2998238836040518263ffffffff1660e01b8152600401610f2d9190611d2d565b600060405180830381600087803b158015610f4757600080fd5b505af1158015610f5b573d6000803e3d6000fd5b505050506040513d6000823e3d601f19601f82011682018060405250810190610f849190611904565b9050600081600081518110610f9c57610f9b612343565b5b602002602001015114610fe4576040517f08c379a0000000000000000000000000000000000000000000000000000000008152600401610fdb90611e42565b60405180910390fd5b60008060008060009054906101000a900473ffffffffffffffffffffffffffffffffffffffff1673ffffffffffffffffffffffffffffffffffffffff16635ec88c79306040518263ffffffff1660e01b81526004016110439190611ce9565b60606040518083038186803b15801561105b57600080fd5b505afa15801561106f573d6000803e3d6000fd5b505050506040513d601f19601f8201168201806040525081019061109391906119fa565b925092509250600083146110dc576040517f08c379a00000000000000000000000000000000000000000000000000000000081526004016110d390611f5a565b60405180910390fd5b6000811461111f576040517f08c379a000000000000000000000000000000000000000000000000000000000815260040161111690611f3a565b60405180910390fd5b60008211611162576040517f08c379a000000000000000000000000000000000000000000000000000000000815260040161115990611e62565b60405180910390fd5b60008773ffffffffffffffffffffffffffffffffffffffff1663fc57d4df8d6040518263ffffffff1660e01b815260040161119d9190611ce9565b60206040518083038186803b1580156111b557600080fd5b505afa1580156111c9573d6000803e3d6000fd5b505050506040513d601f19601f820116820180604052508101906111ed919061197a565b9050600081846111fd919061205e565b90507f8d1cced004452bd270777a8c670f9f7e7c4fdde56f2db331fe289d39dc2624ad8160405161122e9190611f0c565b60405180910390a16000600a90508873ffffffffffffffffffffffffffffffffffffffff1663c5ebeaec8e600a61126591906120e2565b836112709190612200565b6040518263ffffffff1660e01b815260040161128c9190611fa8565b602060405180830381600087803b1580156112a657600080fd5b505af11580156112ba573d6000803e3d6000fd5b505050506040513d601f19601f820116820180604052508101906112de919061197a565b5060008973ffffffffffffffffffffffffffffffffffffffff166317bfdfbc306040518263ffffffff1660e01b815260040161131a9190611ce9565b602060405180830381600087803b15801561133457600080fd5b505af1158015611348573d6000803e3d6000fd5b505050506040513d601f19601f8201168201806040525081019061136c919061197a565b90507f8d1cced004452bd270777a8c670f9f7e7c4fdde56f2db331fe289d39dc2624ad8160405161139d9190611e14565b60405180910390a1809c50505050505050505050505050949350505050565b6000808290506000600115158515151415611463578173ffffffffffffffffffffffffffffffffffffffff1663db006a75876040518263ffffffff1660e01b815260040161140a9190611fa8565b602060405180830381600087803b15801561142457600080fd5b505af1158015611438573d6000803e3d6000fd5b505050506040513d601f19601f8201168201806040525081019061145c919061197a565b90506114f1565b8173ffffffffffffffffffffffffffffffffffffffff1663852a12e3876040518263ffffffff1660e01b815260040161149c9190611fa8565b602060405180830381600087803b1580156114b657600080fd5b505af11580156114ca573d6000803e3d6000fd5b505050506040513d601f19601f820116820180604052508101906114ee919061197a565b90505b7f8d1cced004452bd270777a8c670f9f7e7c4fdde56f2db331fe289d39dc2624ad816040516115209190611db8565b60405180910390a16001925050509392505050565b60008082905060006001151585151514156115dc578173ffffffffffffffffffffffffffffffffffffffff1663db006a75876040518263ffffffff1660e01b81526004016115839190611fa8565b602060405180830381600087803b15801561159d57600080fd5b505af11580156115b1573d6000803e3d6000fd5b505050506040513d601f19601f820116820180604052508101906115d5919061197a565b905061166a565b8173ffffffffffffffffffffffffffffffffffffffff1663852a12e3876040518263ffffffff1660e01b81526004016116159190611fa8565b602060405180830381600087803b15801561162f57600080fd5b505af1158015611643573d6000803e3d6000fd5b505050506040513d601f19601f82011682018060405250810190611667919061197a565b90505b7f8d1cced004452bd270777a8c670f9f7e7c4fdde56f2db331fe289d39dc2624ad816040516116999190611db8565b60405180910390a16001925050509392505050565b60006116c16116bc84611fe8565b611fc3565b905080838252602082019050828560208602820111156116e4576116e36123a6565b5b60005b8581101561171457816116fa88826117b5565b8452602084019350602083019250506001810190506116e7565b5050509392505050565b60008135905061172d816126cf565b92915050565b600081359050611742816126e6565b92915050565b600082601f83011261175d5761175c6123a1565b5b815161176d8482602086016116ae565b91505092915050565b600081359050611785816126fd565b92915050565b60008151905061179a816126fd565b92915050565b6000813590506117af81612714565b92915050565b6000815190506117c481612714565b92915050565b6000602082840312156117e0576117df6123b0565b5b60006117ee84828501611733565b91505092915050565b60008060008060808587031215611811576118106123b0565b5b600061181f87828801611733565b94505060206118308782880161171e565b93505060406118418782880161171e565b9250506060611852878288016117a0565b91505092959194509250565b600080600060608486031215611877576118766123b0565b5b60006118858682870161171e565b93505060206118968682870161171e565b92505060406118a7868287016117a0565b9150509250925092565b6000806000606084860312156118ca576118c96123b0565b5b60006118d88682870161171e565b93505060206118e9868287016117a0565b92505060406118fa868287016117a0565b9150509250925092565b60006020828403121561191a576119196123b0565b5b600082015167ffffffffffffffff811115611938576119376123ab565b5b61194484828501611748565b91505092915050565b600060208284031215611963576119626123b0565b5b60006119718482850161178b565b91505092915050565b6000602082840312156119905761198f6123b0565b5b600061199e848285016117b5565b91505092915050565b6000806000606084860312156119c0576119bf6123b0565b5b60006119ce868287016117a0565b93505060206119df86828701611776565b92505060406119f08682870161171e565b9150509250925092565b600080600060608486031215611a1357611a126123b0565b5b6000611a21868287016117b5565b9350506020611a32868287016117b5565b9250506040611a43868287016117b5565b9150509250925092565b6000611a598383611a65565b60208301905092915050565b611a6e8161225a565b82525050565b611a7d8161225a565b82525050565b6000611a8e82612024565b611a98818561203c565b9350611aa383612014565b8060005b83811015611ad4578151611abb8882611a4d565b9750611ac68361202f565b925050600181019050611aa7565b5085935050505092915050565b611aea8161227e565b82525050565b6000611afd60198361204d565b9150611b08826123d3565b602082019050919050565b6000611b2060188361204d565b9150611b2b826123fc565b602082019050919050565b6000611b4360248361204d565b9150611b4e82612425565b604082019050919050565b6000611b6660238361204d565b9150611b7182612474565b604082019050919050565b6000611b8960208361204d565b9150611b94826124c3565b602082019050919050565b6000611bac60208361204d565b9150611bb7826124ec565b602082019050919050565b6000611bcf601d8361204d565b9150611bda82612515565b602082019050919050565b6000611bf2601b8361204d565b9150611bfd8261253e565b602082019050919050565b6000611c1560188361204d565b9150611c2082612567565b602082019050919050565b6000611c3860258361204d565b9150611c4382612590565b604082019050919050565b6000611c5b602c8361204d565b9150611c66826125df565b604082019050919050565b6000611c7e60128361204d565b9150611c898261262e565b602082019050919050565b6000611ca160278361204d565b9150611cac82612657565b604082019050919050565b6000611cc460208361204d565b9150611ccf826126a6565b602082019050919050565b611ce3816122aa565b82525050565b6000602082019050611cfe6000830184611a74565b92915050565b6000604082019050611d196000830185611a74565b611d266020830184611cda565b9392505050565b60006020820190508181036000830152611d478184611a83565b905092915050565b6000602082019050611d646000830184611ae1565b92915050565b60006040820190508181036000830152611d8381611af0565b9050611d926020830184611cda565b92915050565b60006020820190508181036000830152611db181611b13565b9050919050565b60006040820190508181036000830152611dd181611b36565b9050611de06020830184611cda565b92915050565b60006040820190508181036000830152611dff81611b59565b9050611e0e6020830184611cda565b92915050565b60006040820190508181036000830152611e2d81611b7c565b9050611e3c6020830184611cda565b92915050565b60006020820190508181036000830152611e5b81611b9f565b9050919050565b60006020820190508181036000830152611e7b81611bc2565b9050919050565b60006040820190508181036000830152611e9b81611be5565b9050611eaa6020830184611cda565b92915050565b60006040820190508181036000830152611ec981611c08565b9050611ed86020830184611cda565b92915050565b60006040820190508181036000830152611ef781611c2b565b9050611f066020830184611cda565b92915050565b60006040820190508181036000830152611f2581611c4e565b9050611f346020830184611cda565b92915050565b60006020820190508181036000830152611f5381611c71565b9050919050565b60006020820190508181036000830152611f7381611c94565b9050919050565b60006040820190508181036000830152611f9381611cb7565b9050611fa26020830184611cda565b92915050565b6000602082019050611fbd6000830184611cda565b92915050565b6000611fcd611fde565b9050611fd982826122b4565b919050565b6000604051905090565b600067ffffffffffffffff82111561200357612002612372565b5b602082029050602081019050919050565b6000819050602082019050919050565b600081519050919050565b6000602082019050919050565b600082825260208201905092915050565b600082825260208201905092915050565b6000612069826122aa565b9150612074836122aa565b92508261208457612083612314565b5b828204905092915050565b6000808291508390505b60018511156120d9578086048111156120b5576120b46122e5565b5b60018516156120c45780820291505b80810290506120d2856123c6565b9450612099565b94509492505050565b60006120ed826122aa565b91506120f8836122aa565b92506121257fffffffffffffffffffffffffffffffffffffffffffffffffffffffffffffffff848461212d565b905092915050565b60008261213d57600190506121f9565b8161214b57600090506121f9565b8160018114612161576002811461216b5761219a565b60019150506121f9565b60ff84111561217d5761217c6122e5565b5b8360020a915084821115612194576121936122e5565b5b506121f9565b5060208310610133831016604e8410600b84101617156121cf5782820a9050838111156121ca576121c96122e5565b5b6121f9565b6121dc848484600161208f565b925090508184048111156121f3576121f26122e5565b5b81810290505b9392505050565b600061220b826122aa565b9150612216836122aa565b9250817fffffffffffffffffffffffffffffffffffffffffffffffffffffffffffffffff048311821515161561224f5761224e6122e5565b5b828202905092915050565b60006122658261228a565b9050919050565b60006122778261228a565b9050919050565b60008115159050919050565b600073ffffffffffffffffffffffffffffffffffffffff82169050919050565b6000819050919050565b6122bd826123b5565b810181811067ffffffffffffffff821117156122dc576122db612372565b5b80604052505050565b7f4e487b7100000000000000000000000000000000000000000000000000000000600052601160045260246000fd5b7f4e487b7100000000000000000000000000000000000000000000000000000000600052601260045260246000fd5b7f4e487b7100000000000000000000000000000000000000000000000000000000600052603260045260246000fd5b7f4e487b7100000000000000000000000000000000000000000000000000000000600052604160045260246000fd5b600080fd5b600080fd5b600080fd5b600080fd5b6000601f19601f8301169050919050565b60008160011c9050919050565b7f43757272656e742045544820626f72726f7720616d6f756e7400000000000000600082015250565b7f4345726332302e7265706179426f72726f77204572726f720000000000000000600082015250565b7f49662074686973206973206e6f7420302c2074686572652077617320616e206560008201527f72726f7200000000000000000000000000000000000000000000000000000000602082015250565b7f45786368616e6765205261746520287363616c6564207570206279203165313860008201527f293a200000000000000000000000000000000000000000000000000000000000602082015250565b7f43757272656e7420756e6465726c79696e6720626f72726f7720616d6f756e74600082015250565b7f436f6d7074726f6c6c65722e656e7465724d61726b657473206661696c65642e600082015250565b7f6163636f756e74206861732065786365737320636f6c6c61746572616c000000600082015250565b7f45786368616e6765205261746520287363616c6564207570293a200000000000600082015250565b7f537570706c7920526174653a20287363616c6564207570290000000000000000600082015250565b7f4d6178696d756d2045544820426f72726f772028626f72726f7720666172206c60008201527f6573732129000000000000000000000000000000000000000000000000000000602082015250565b7f4d6178696d756d20756e6465726c79696e6720426f72726f772028626f72726f60008201527f7720666172206c65737321290000000000000000000000000000000000000000602082015250565b7f6163636f756e7420756e64657277617465720000000000000000000000000000600082015250565b7f436f6d7074726f6c6c65722e6765744163636f756e744c69717569646974792060008201527f6661696c65642e00000000000000000000000000000000000000000000000000602082015250565b7f537570706c7920526174653a20287363616c6564207570206279203165313829600082015250565b6126d88161225a565b81146126e357600080fd5b50565b6126ef8161226c565b81146126fa57600080fd5b50565b6127068161227e565b811461271157600080fd5b50565b61271d816122aa565b811461272857600080fd5b5056fea2646970667358221220910c78121db81a8e4b7b0745837296f934df5d10c695442c3d1d468f6910065164736f6c63430008060033",
  "linkReferences": {},
  "deployedLinkReferences": {}
}